:100000000C9456000C9473000C9473000C947300C1
:100010000C9473000C9473000C9473000C94730094
:100020000C9473000C9473000C9473000C94D8021D
:100030000C9473000C9473000C9473000C94730074
:100040000C9473000C9473000C9473000C94730064
:100050000C9473000C9473000C9473000C94730054
:100060000C9473000C9473000C9473000C94730044
:100070000C9473000C9473000C9473000C94730034
:100080000C9473000C9473000C9473000C94730024
:100090000C9473000C9473000C9473000C94730014
:1000A0000C9473000C9473000C94730011241FBE05
:1000B000CFEFCDBFDFE2DEBF10E2A0E0B0E2E8E6C6
:1000C000F6E002C005900D92A032B107D9F720E208
:1000D000A0E2B0E201C01D92AD32B207E1F70E948A
:1000E0009C000C9432030C940000E0E5F0E0808169
:1000F000826080838091510081FFFCCFE0E5F0E0D9
:1001000084E885838081806180838091510084FFB1
:10011000FCCF88ED84BF84E08093400008950E9466
:10012000C1020E94D502843021F00E94D5028F3F87
:10013000C1F70E94D5020895CF93DF93CDB7DEB704
:100140002A97CDBFDEBF0E94750080E091EE0E942D
:10015000410119820E94B50281E08093A200789447
:1001600010E000E01DC020E030E041E060E0812FC1
:100170000E948F008A832FEF89EF90E0215080400A
:100180009040E1F700C000008A818F3F41F0E3E03A
:10019000F0E0EC0FFD1FE00FF11D10830F5F1F5FFC
:1001A0001F3708F310E02BC0E12EF12CE3E0F0E064
:1001B000EC0FFD1FEE0DFF1D80818823F9F080E01C
:1001C00090E20E94150188E70E940E01E3E0F0E052
:1001D000EC0FFD1FEE0DFF1D80810E9431018AE0B2
:1001E0000E940E018DE00E940E012FEF81EE94E03F
:1001F000215080409040E1F700C000001F5F1830A0
:1002000098F289818F5F89832FEF8BE792E92150E4
:1002100080409040E1F700C00000A2CF9091C1085B
:1002200095FFFCCF8093C00808950F931F93CF9341
:10023000DF938C01C0E0D0E003C021960E940E0144
:10024000F801EC0FFD1F80818111F7CFDF91CF9175
:100250001F910F9108958A3010F4805D0895895C94
:100260000895CF93C82F82958F700E942B010E9412
:100270000E018C2F8F700E942B010E940E01CF91D6
:1002800008958F929F92AF92BF92CF92DF92EF929A
:10029000FF920F931F93CF93E0E4F6E028E02183D1
:1002A00024E02283A0E0B0E083309105A105B105F0
:1002B00008F4B2C06C017D01CC0CDD1CEE1CFF1CEF
:1002C00060E078E488EE91E0A70196010E941003B7
:1002D000DA01C9014FEF50E060E070E0C9EF0DC0F6
:1002E00084179507A607B70750F0440F551F661FE0
:1002F000771FCD3F0CF44160CF5FC7308CF3CC2328
:100300000CF056C097018601000F111F221F331FEA
:10031000000F111F221F331F000F111F221F331F39
:1003200080E098E4A8EEB1E0801B910BA20BB30B28
:10033000CE3FF4F42DEF3FEF2C1B3109C7FD339571
:1003400004C0880F991FAA1FBB1F2A95D2F79701D7
:1003500086013695279517950795BC01CD01600F4D
:10036000711F821F931FA70196010E9410033FC0B7
:100370002C2F0C2E000C330B2D5F3F4F46015701E5
:1003800004C0880C991CAA1CBB1C2A95D2F7A50195
:10039000940175016401F694E794D794C794BC0165
:1003A000CD016C0D7D1D8E1D9F1D0E9410031FC071
:1003B0008C2F0C2E000C990B0396A701960104C0FC
:1003C000220F331F441F551F8A95D2F7DA01C90146
:1003D000B695A79597958795BC01CD01785B874128
:1003E0009E4F0E9410032150310941095109832F6A
:1003F0008F70C295C07FC82BE0ECF8E0C7832683DE
:1004000080E1828381818068818383E08483848129
:10041000877C848388E18383CF911F910F91FF9024
:10042000EF90DF90CF90BF90AF909F908F90089506
:10043000E0E2F0E28FEF84870190F081E02D83E02D
:10044000838308950E9418020895CF93DF93E0916B
:100450002020F0912120848184FF03C00E94180293
:1004600042C080912C20811112C0A0E2B0E213960C
:100470008C911397878316968C91882321F081E0C5
:1004800080932C2030C082E080932C202CC08130BF
:1004900071F4A0E2B0E212968C91129790E0880F6E
:1004A000991F8160868383E01C968C931CC08230E8
:1004B000D1F4A0E2B0E215968C91159714969C9118
:1004C0001497891758F4ED01A885B98591E0980F24
:1004D0009D83A80FB11D8C91878305C083E0838322
:1004E00084E080932C20DF91CF91089580912C207F
:1004F0008330C1F5809127208830A0F4A0E2B0E2DB
:100500001A96ED91FC911B9791E0980F17969C938A
:100510001797E80FF11D0D90BC91A02D17968C91A7
:10052000808309C0E0E2F0E2A081B18187E0139608
:100530008C9386E08487E0E2F0E2978186819817C9
:1005400038F4E0912020F091212082E08383089507
:10055000E0E2F0E2A081B18187E013968C9385E020
:10056000848708950E9418020895E0E8F4E010825C
:1005700080EA858388E78183128284818160848315
:100580000895E0E2F0E21286138616821582208733
:1005900031874483A0E8B4E0A083B183828363837E
:1005A0001486880F16968C93089580912C200895B8
:1005B0001F920F920FB60F9211242F933F934F93D8
:1005C0005F936F937F938F939F93AF93BF93EF93BB
:1005D000FF93E0912020F0912120848183FF03C0CC
:1005E0000E9422020CC086FF03C00E94250207C0A1
:1005F00088231CF40E94760202C00E941802FF9118
:10060000EF91BF91AF919F918F917F916F915F918A
:100610004F913F912F910F900FBE0F901F90189503
:10062000A1E21A2EAA1BBB1BFD010DC0AA1FBB1FF6
:10063000EE1FFF1FA217B307E407F50720F0A21B68
:10064000B30BE40BF50B661F771F881F991F1A94D5
:1006500069F760957095809590959B01AC01BD01FF
:08066000CF010895F894FFCFCB
:100668007468652066697273742044657669636589
:10067800207468617420666F756E64203A200000EB
:00000001FF
